:020000040800F2
:100000000050002021020008270200082B020008EF
:1000100043020008470200085F02000800000000D9
:10002000000000000000000000000000770200084F
:100030007B020008000000007F0200088302000825
:100040009102000891020008910200089102000844
:100050009102000891020008910200089102000834
:100060009102000891020008910200089102000824
:100070009102000891020008910200089102000814
:100080009102000891020008910200089102000804
:1000900091020008910200089102000891020008F4
:1000A00091020008910200089102000891020008E4
:1000B00091020008910200089102000891020008D4
:1000C00091020008910200089102000891020008C4
:1000D00091020008910200089102000891020008B4
:1000E000910200089102000891020008000000003F
:1000F0000000000000000000000000000000000000
:1001000000000000000000005FF808F100B583B0B7
:1001100000F0DEF8304B314A1360314A1360314B46
:10012000314A32498B4204D21168196004330432D7
:10013000F7E72A4B1A682E4B9A4200D0FEE7284B6D
:100140001A682C4B9A42F9D1234B2B4A13602B4A45
:1001500013602B4B02E000221A600433294A9342B9
:10016000F9D3254B1B6813B9244B1B6803B1FEE779
:1001700000F0BAF8694601A800F0A2F8224C234B1F
:10018000E41AA4100025AC4214DC214C214BE41AE3
:10019000A4100025AC4213DC0099019800F063FB29
:1001A00005461D4C1D4BE41AA410002C0EDC2846FD
:1001B00000F084F8154B53F8253098470135E2E7F5
:1001C000144B53F8253098470135E3E7013C134BB6
:1001D00053F824309847E8E7BABADECA0000002096
:1001E0002000002000000020B008000824000020AB
:1001F0007856341232547698240000202C000020C7
:100200002400002030000020BC020008BC020008CE
:10021000BC020008BC020008BC020008BC020008C6
:1002200008B5FFF773FF00BEFEE71EF0040F0CBF1A
:10023000EFF30880EFF309807146124A104700BEC1
:10024000FEE700BEFEE71EF0040F0CBFEFF30880D0
:10025000EFF3098071460C4A104700BEFEE71EF01E
:10026000040F0CBFEFF30880EFF309807146074AD3
:10027000104700BEFEE700BEFEE700BEFEE700BE80
:10028000FEE770473F0200085B02000873020008A7
:0402900000BEFEE7C7
:10029400B00800080000002024000020B008000876
:1002A40000000000000000002400002030000020B6
:0802B400000000000000000042
:1002BC00FEE7000001230360014B0B60704700BF99
:1002CC000400002008B500F073F8024A024B9A6053
:1002DC0008BD00BF0000000800ED00E008B500F00C
:1002EC008FF808BD82B00023019300932C4A136849
:1002FC0043F4803313602A4B1B6803F400330093E0
:10030C00019B01330193009B1BB9019BB3F5A06FBB
:10031C00F1D1234B1B6813F4003F06D0012300934B
:10032C00009B012B04D002B0704700230093F7E729
:10033C001C4B1A6842F010021A601A6822F0030271
:10034C001A601A6842F002021A60A3F580535A68C8
:10035C005A605A685A605A6842F480625A605A6805
:10036C0022F47C125A605A6842F4E8125A601A68F5
:10037C0042F080721A600A4B1B6813F0007FFAD0AF
:10038C00074B5A6822F003025A605A6842F0020284
:10039C005A60034B5B6803F00C03082BF9D1C2E7DE
:1003AC00001002400020024008B5FFF79BFF08BD7B
:1003BC0008B5104B1A6842F001021A6059680E4ACF
:1003CC000A405A601A6822F0847222F480321A6051
:1003DC001A6822F480221A605A6822F4FE025A60CB
:1003EC004FF41F029A60FFF7DFFF044B4FF00062DF
:1003FC009A6008BD001002400000FFF800ED00E01C
:10040C001F4B5B6803F00C03042B15D0082B17D083
:10041C001BB11C4B1C4A1A6002E01A4B1A4A1A6098
:10042C00174B5B68C3F30313184AD35CDAB2154954
:10043C000B68D3400B607047124B134A1A60EFE7FE
:10044C000F4A53685268C3F38343023312F4803F5C
:10045C000AD00B4A526812F4003F0BD00C4A02FB34
:10046C0003F3084A1360DBE7094A02FB03F3054A6E
:10047C001360D5E7044A02FB03F3024A1360CFE78B
:10048C00001002401C00002000127A000C0000201A
:10049C0000093D0030B401284AD0A0B102286DD02B
:1004AC0030BC70470838C0B2354B1C6882000F2531
:1004BC00954024EA05041C601C6801FA02F22243F0
:1004CC001A600130C0B20F28EAD80728EAD82D4BA1
:1004DC001C6882000F25954024EA05041C601C68EA
:1004EC0001FA02F222431A60EBE7083BDBB2264A20
:1004FC00146898000F25854024EA050414601468DC
:10050C0001FA00F0204310600133DBB20F2BC7D887
:10051C00072BEAD81D4A146898000F25854024EA59
:10052C0005041460146801FA00F020431060EBE736
:10053C000023EBE7083BDBB2154D28689A000F242B
:10054C00944020EA040028600F4C206801FA02F263
:10055C00024322600133DBB20F2BA1D8072BE9D861
:10056C000C4A146898000F25854024EA0504146091
:10057C00146801FA00F020431060EBE70023EBE76E
:10058C001008014000080140100C0140000C014013
:10059C00101801400018014010B4012827D018B1E0
:1005AC00022847D010BC7047072912D90F29F9D857
:1005BC00A1F10804E4B2324B1968A4000F20A0404A
:1005CC0021EA00011960186802FA04F1014319606C
:1005DC00E8E72C4B186889000F248C4020EA0400B3
:1005EC001860186802FA01F101431960DAE707296B
:1005FC0012D90F29D6D8A1F10800C0B2224B196824
:10060C0080000F24844021EA040119601C6802FA5E
:10061C0000F121431960C5E71C4B186889000F24B1
:10062C008C4020EA04001860186802FA01F10143BA
:10063C001960B7E7072914D90F29B3D8A1F108031A
:10064C00DBB2134C21689B000F20984021EA00017B
:10065C002160A4F54064206802FA03F10143216093
:10066C00A0E70C4B186889000F248C4020EA04008A
:10067C001860186802FA01F10143196092E700BF93
:10068C001008014000080140100C0140000C014012
:10069C001018014000180140012817D010B1022891
:1006AC0027D07047012A0AD0002A2DD11A48036896
:1006BC00012202FA01F123EA010101607047164898
:1006CC00036802FA01F1194301607047012A09D04D
:1006DC00D2B912480368012202FA01F123EA01019E
:1006EC00016070470D48036802FA01F1194301607B
:1006FC007047012A09D03AB909480368012202FA65
:10070C0001F123EA0101016070470548036802FA10
:10071C0001F119430160704730080140300C014071
:10072C003018014001280AD018B102280DD0002041
:10073C007047094B1868C84000F001007047074B20
:10074C001868C84000F001007047054B1868C84095
:10075C0000F00100704700BF20080140200C014050
:10076C002018014038B504460D460222FFF714FF4D
:10077C00012229462046FFF78FFF38BD38B50446C5
:10078C000D460222FFF708FF002229462046FFF7FC
:10079C0083FF38BD034B00221A601A6842F4803282
:1007AC001A60704700100240014B01221A6070471A
:1007BC00041002401F291CD801280BD010B10228AC
:1007CC0010D070470B480368012202FA01F119435B
:1007DC000160704708480368012202FA01F11943CD
:1007EC000160704705480368012202FA01F11943C0
:1007FC0001607047141002401C1002401810024097
:10080C00002204E000BF01338342FBD30132824259
:10081C0001D80023F8E77047F8B504460D46164694
:10082C001F46FFF77FFF012805D029462046FFF71A
:10083C0079FF48B1F8BD4FF47A70FFF7E1FF394604
:10084C003046FFF78FFFF5E74FF47A70FFF7D8FFCC
:10085C0039463046FFF792FFECE708B5FFF79AFFF1
:10086C00FFF7A2FF02210846FFF7A4FF0321022095
:10087C00FFF7A0FF04210220FFF79CFF01210020BD
:10088C00FFF708FE08210120FFF704FE01220021DA
:10089C001046FFF781FE00231A4619460120FFF788
:0408AC00BBFFF8E7AF
:1008B00078563412280000200000000000000000DC
:1008C00000000000010203040607080900A24A0410
:0408D0003254769890
:040000050800010DE1
:00000001FF
