:020000040800F2
:100000000050002021020008270200082B020008EF
:1000100043020008470200085F02000800000000D9
:10002000000000000000000000000000770200084F
:100030007B020008000000007F0200088302000825
:100040009102000891020008910200089102000844
:100050009102000891020008910200089102000834
:100060009102000891020008910200089102000824
:100070009102000891020008910200089102000814
:100080009102000891020008910200089102000804
:1000900091020008910200089102000891020008F4
:1000A00091020008910200089102000891020008E4
:1000B00091020008910200089102000891020008D4
:1000C00091020008910200089102000891020008C4
:1000D00091020008910200089102000891020008B4
:1000E000910200089102000891020008000000003F
:1000F0000000000000000000000000000000000000
:1001000000000000000000005FF808F100B583B0B7
:1001100000F0DEF8304B314A1360314A1360314B46
:10012000314A32498B4204D21168196004330432D7
:10013000F7E72A4B1A682E4B9A4200D0FEE7284B6D
:100140001A682C4B9A42F9D1234B2B4A13602B4A45
:1001500013602B4B02E000221A600433294A9342B9
:10016000F9D3254B1B6813B9244B1B6803B1FEE779
:1001700000F0BAF8694601A800F0A2F8224C234B1F
:10018000E41AA4100025AC4214DC214C214BE41AE3
:10019000A4100025AC4213DC0099019800F0C2FACB
:1001A00005461D4C1D4BE41AA410002C0EDC2846FD
:1001B00000F084F8154B53F8253098470135E2E7F5
:1001C000144B53F8253098470135E3E7013C134BB6
:1001D00053F824309847E8E7BABADECA0000002096
:1001E0002000002000000020240800082400002037
:1001F0007856341232547698240000202C000020C7
:100200002400002030000020BC020008BC020008CE
:10021000BC020008BC020008BC020008BC020008C6
:1002200008B5FFF773FF00BEFEE71EF0040F0CBF1A
:10023000EFF30880EFF309807146124A104700BEC1
:10024000FEE700BEFEE71EF0040F0CBFEFF30880D0
:10025000EFF3098071460C4A104700BEFEE71EF01E
:10026000040F0CBFEFF30880EFF309807146074AD3
:10027000104700BEFEE700BEFEE700BEFEE700BE80
:10028000FEE770473F0200085B02000873020008A7
:0402900000BEFEE7C7
:10029400240800080000002024000020240800088E
:1002A40000000000000000002400002030000020B6
:0802B400000000000000000042
:1002BC00FEE7000001230360014B0B60704700BF99
:1002CC000400002008B500F073F8024A024B9A6053
:1002DC0008BD00BF0000000800ED00E008B500F00C
:1002EC008FF808BD82B00023019300932C4A136849
:1002FC0043F4803313602A4B1B6803F400330093E0
:10030C00019B01330193009B1BB9019BB3F5A06FBB
:10031C00F1D1234B1B6813F4003F06D0012300934B
:10032C00009B012B04D002B0704700230093F7E729
:10033C001C4B1A6842F010021A601A6822F0030271
:10034C001A601A6842F002021A60A3F580535A68C8
:10035C005A605A685A605A6842F480625A605A6805
:10036C0022F47C125A605A6842F4E8125A601A68F5
:10037C0042F080721A600A4B1B6813F0007FFAD0AF
:10038C00074B5A6822F003025A605A6842F0020284
:10039C005A60034B5B6803F00C03082BF9D1C2E7DE
:1003AC00001002400020024008B5FFF79BFF08BD7B
:1003BC0008B5104B1A6842F001021A6059680E4ACF
:1003CC000A405A601A6822F0847222F480321A6051
:1003DC001A6822F480221A605A6822F4FE025A60CB
:1003EC004FF41F029A60FFF7DFFF044B4FF00062DF
:1003FC009A6008BD001002400000FFF800ED00E01C
:10040C001F4B5B6803F00C03042B15D0082B17D083
:10041C001BB11C4B1C4A1A6002E01A4B1A4A1A6098
:10042C00174B5B68C3F30313184AD35CDAB2154954
:10043C000B68D3400B607047124B134A1A60EFE7FE
:10044C000F4A53685268C3F38343023312F4803F5C
:10045C000AD00B4A526812F4003F0BD00C4A02FB34
:10046C0003F3084A1360DBE7094A02FB03F3054A6E
:10047C001360D5E7044A02FB03F3024A1360CFE78B
:10048C00001002401C00002000127A000C0000201A
:10049C0000093D0030B401284AD0A0B102286DD02B
:1004AC0030BC70470838C0B2354B1C6882000F2531
:1004BC00954024EA05041C601C6801FA02F22243F0
:1004CC001A600130C0B20F28EAD80728EAD82D4BA1
:1004DC001C6882000F25954024EA05041C601C68EA
:1004EC0001FA02F222431A60EBE7083BDBB2264A20
:1004FC00146898000F25854024EA050414601468DC
:10050C0001FA00F0204310600133DBB20F2BC7D887
:10051C00072BEAD81D4A146898000F25854024EA59
:10052C0005041460146801FA00F020431060EBE736
:10053C000023EBE7083BDBB2154D28689A000F242B
:10054C00944020EA040028600F4C206801FA02F263
:10055C00024322600133DBB20F2BA1D8072BE9D861
:10056C000C4A146898000F25854024EA0504146091
:10057C00146801FA00F020431060EBE70023EBE76E
:10058C001008014000080140100C0140000C014013
:10059C001018014000180140012812D010B1022897
:1005AC001ED07047012A06D012BB012303FA01F1B9
:1005BC00134B19607047012303FA01F1114B1960B9
:1005CC007047012A06D09AB9012303FA01F10E4BA8
:1005DC0019607047012303FA01F10C4B1960704745
:1005EC00012A06D022B9012303FA01F1084B196044
:1005FC007047012303FA01F1064B1960704700BFE5
:10060C005008014040080140500C0140400C014092
:10061C005018014040180140054B00221A601A681E
:10062C0042F001021A601A6842F080021A607047A8
:10063C0000100240014B00221A6070470410024067
:10064C001F291CD801280BD010B1022810D07047DC
:10065C000B480368012202FA01F11943016070474B
:10066C0008480368012202FA01F11943016070473E
:10067C0005480368012202FA01F119430160704731
:10068C00141002401C10024018100240024B186853
:10069C00C0F30040704700BF10E000E010B101282B
:1006AC0006D07047054A136823F0040313607047A3
:1006BC00024A136843F004031360F2E710E000E011
:1006CC0010B1012806D07047054A136823F00103C6
:1006DC0013607047024A136843F001031360F2E79A
:1006EC0010E000E0B0F1807F12D210B501290DD0DE
:1006FC00084B586000229A600120FFF7E1FF054B80
:10070C001C68FFF7C3FF0442F9D010BD0138EFE7B6
:10071C00704700BF10E000E070B582B0FFF77CFFBF
:10072C00FFF788FF02210846FFF78AFF032102200A
:10073C00FFF786FF04210220FFF782FF0121002032
:10074C00FFF7A8FE0020FFF7A9FF00212E48FFF7B6
:10075C00C9FF2E4B93E8030002AB03E9030050E002
:10076C002546012229460020FFF716FF00212648C6
:10077C00FFF7B8FF002229461046FFF70DFF0134A2
:10078C00E4B20F2C05D8072CEAD9C4F10F05EDB251
:10079C00E7E70136F6B2032E01D80024F1E7002476
:1007AC0014E002AB03EB4405012215F8081C0020F1
:1007BC00FFF7F2FE012215F8071C0020FFF7ECFEF4
:1007CC0000211148FFF78EFF0134E4B2032CE8D965
:1007DC00042414E0013C02AB03EB4405002215F8A1
:1007EC00081C1046FFF7D8FE002215F8071C10460F
:1007FC00FFF7D2FE00210448FFF774FFE4B2002C8F
:10080C00E8D10026C7E700BF400D03001C08000814
:08081C000304020501060007B8
:100824007856341228000020000000000000000068
:1008340000000000010203040607080900A24A049C
:04084400325476981C
:040000050800010DE1
:00000001FF
